:020000040001F9
:0A00000002150002663EC28C323287
:06000B0002556EC28D32A9
:0600130002654CC28C32B4
:06001B00020009C28D3253
:0600230002571EFF04005D
:10002B00024FEB9015BF126B84E0FF9015BDE014EF
:10003B00F09015BFE004F0E0C394C84002E4F02256
:03004B0002498CDB
:03005300020006A2
:03005B0002000E92
:0300630002001682
:03006B0002001E72
:03007300025D0823
:03007B00025F73AE
:10008300024126EF7E0024D0B40A00401124F9B4C3
:100093001000400A24E0B41000400374FFFEFF2266
:1000A300026096E50830030104F82328241AF58238
:1000B300E43419F5832290191730030390191AE4D5
:1000C30075F0011227AE0223D760EAC50C70021542
:1000D3000B14C50C200304FF026BB790191774FFB0
:1000E300F5F00227C5FF026AABE5096006D50903EF
:1000F3007F002220030F126A97EF6008050CE50CBE
:100103007002050B229019171227A51223D7FF603F
:10011300E8901917E475F0011227AE80DC1200F69F
:10012300EFC0E01200E8D0E040F3809DD2038002EC
:10013300C2039019171227DCE4F50AF508F50BF54D
:100143000C750900C202C200C201C2041200B9FF49
:100153007005AF0A7E0022B425301200B9FF24D007
:10016300B40A00500C75F00AC509A42509F50980E5
:10017300E924CFB41A00EF5002C2E50203CCD20146
:1001830080D8D20080D4D20480D0EF1200E8500887
:10019300120120EF600E80A9EFC0E01200F6D0E05C
:1001A3006F609EEF60741200CC80A71200F6EF60C0
:1001B30069E5097007050980031200F6EF60142052
:1001C300040E1200A6E475F0011227AEEF122450BC
:1001D300D509E62004040508050A80BA1200ECEFED
:1001E300C0E01200E8D0E050041200CCE4FF200489
:1001F3000E1200A6E475F0011227AEEF122450EFA1
:1002030070DA2004040508050A808BE509600205FD
:10021300091201201200ECEF70C6300304E412004F
:10022300CCE50A60030201557EFF7FFF22E50960EA
:10023300020509120120D206D2051200ECEF3006A6
:100243000260D7C0E01200CCD0E0AC0DAD0EAE0F13
:10025300AF10124D748C0D8D0E8E0F8F1050071230
:1002630000F6C20580D4200410200502050A1200FE
:10027300A61227A50508122710020144D0E0809A90
:100283007900800A7910800679088002790AD205FC
:10029300E50960020509E9C0E0120120EF60DD1203
:1002A30000F6BF2D04D2028003BF2B09120120EFF9
:1002B30060CA1200ECD0E0B40A028033B4080280B2
:1002C3002EBF302770027408C205C0E01200ECD0C4
:1002D300E0BF78028003BF58160509D509028007DD
:1002E300D50904D205800B741080197002740ABFFB
:1002F300000AEFF8E4FCFDFEFF02037FC0E0EF120B
:1003030000CCD0E0F9E4FCFDFEFFE9C0E0ECC0E086
:10031300EDC0E0EEC0E0EFC0E01200ECEFF8D0E09B
:10032300FFD0E0FED0E0FDD0E0FCD0F0E8604DB4BB
:1003330061004007B47B005002C2E524D0503DFA6F
:1003430024F6500724F95034240AFAEAB5F0005091
:100353002BCFA9F0A42FFF92D5E9C5F0CEA4A2D547
:100363003EFE92D5E9C5F0CDA4A2D53DFD92D5E9D7
:10037300C5F0CCA4A2D53CFCC205808EE8C0E02029
:10038300042A200508050A3002031226711200A66A
:100393001227A5050820000B20010DEE8FF0122572
:1003A3000180091227108004EF122450D0E01200BC
:1003B300CC0201442004101200A61227A50508E56B
:1003C3000B850CF012250180E81227F1020E53026F
:1003D300875801854C018142015D48028B4F028F92
:1003E3004401AE43028349028F5502304602304531
:0D03F30002304701892A03B74E0000018D3A
:10150000025602901907E584F053E7FBA3E4F0A329
:1015100004F0901908E0FEA3E0FF4E70030217707C
:10152000901B6BE05EFEA3E05F8EF0122817156E35
:10153000000115A8000215CE000415F5000815FDE0
:101540000010160C00201629004016380080165096
:1015500001001687020016BC040016DD080016EA1A
:10156000100016F320001708400000001760202626
:101570001C7F321218A47F351218A47F3A1218A4C7
:101580007F671218A47F6A1218A4121A2A7F5D12AC
:1015900018A97F651218A97F381218A97D0A7C0046
:1015A000E4FF125F380216809015E6E04404F0A3D1
:1015B000E04440F03010077A647922121774125F09
:1015C0006960057F0812639F901B6C0216B5901B23
:1015D000B0E0FF30E707901A4CE020E70BEF20E780
:1015E0000A901A4CE020E70312197B7D787F0212E3
:1015F0005F360216D6D20F901B6C0216E4C20012A0
:1016000019D07D1E7F04125F360216ED1218F49079
:1016100015DEE054FEF09015E7E054F7F0901BBDA6
:101620007480F0901B6C0217027A6479441217746C
:10163000C211901B6C02175C1218957F451218A9F5
:101640007D0F7C007F07125F38E0547FF002176047
:10165000901BB0E0FF30E707901A4CE020E70BEF5B
:1016600020E713901A4CE020E70C125F69600E7FB0
:101670000812639F80079015E6E04420F0901B6BF2
:10168000E054FEF0021760901B71E0601C901BB0EC
:10169000E030E10AE4901C70F0121A7A8008901B86
:1016A000BB7480F0A3F01219587D057C007F0912ED
:1016B000639F901B6BE054FDF002176030100B7BB2
:1016C000FF7A647958E4FD1219DAC210901BA3E086
:1016D00054EFF0901B6BE054FBF0021760C22CC279
:1016E0002D901B6BE054F7F08076901B6BE054EF6D
:1016F000F0806D12191C7D3C7C007F0D12639F9061
:101700001B6BE054DFF08058901C20E0600F7D1EC2
:101710007C007F0E12639F901C20E014F012187C56
:10172000901924EEF0A3EFF0E4A3F0901C21E090D8
:101730001927F0E4FBFDFC7F6D121854901C21E08A
:10174000B4FF167B017A0079007D1B121B977B0189
:101750007A007900E4FD1219DA901B6BE054BFF0B7
:10176000901909E025E0F0901908E033F002151215
:1017700043E704227BFFE4FD1219DA22E0FE25E0B4
:10178000241AFFA3F0EE25E024FAF582E43419F5DB
:101790008322E4901926F0A3F0901925E075F00259
:1017A000A424C2FFE5F03410FE22ED25E0241AF552
:1017B00082E4341AF58322FF3395E0FEEF25E0FF43
:1017C000EE33FE74FA2FF582741922EF75F0029051
:1017D000177402279990191CE024E2FFE43410FEEC
:1017E00022741A2FF582741A3EF583E4F0A3F022D6
:1017F00024D6F582E43415F5832275F0080223B56A
:10180000C2AFC01C7418C0E0C082C083D2AF751CC8
:101810000E75B10022C2AFC01C7418C0E0C082C0F7
:1018200083D2AF751C2375B11122C2AFC01C7418CE
:10183000C0E0C082C083D2AF751C3875B12222C20D
:10184000AFC01C7418C0E0C082C083D2AF751C4DFD
:1018500075B13322909D03013F90D50A013F90BDA1
:1018600010013F90DEC7013F90CF2C013F90DFA0D9
:10187000013F90D26A013F90DFBD013F90DEE7015A
:101880003F90D0E6013F90CC82013F90E058013F6D
:101890009099B8013F90DFD8013F90DCA2013F90C2
:1018A000DBD5013F90D936013F90DE08013F90889B
:1018B00038013F90D170013F90D802013F90CB1288
:1018C000013F90CFC4013F90C47A013F90DDDE011B
:1018D0003F90DCD3013F90963A013F90D576013F8F
:1018E00090DA7D013F90E032013F90BF6B013F9065
:1018F000E078013F90E01D013F90D759013F90A053
:1019000036013F90E21F011590D67A011590AFEC99
:10191000011590BF82011590E403011590E2F401D6
:101920001590C5DE011590BB96011590B51B0115EC
:1019300090B0CF011590BC40011590DC4901159085
:10194000DE71011590D6CA011590E29E011590E254
:1019500041011590C3A4011590D32D011590AD3D03
:101960000115909734011590DCCE0115909CB801BB
:101970001590C6F6011590BE3D011590DEE10115EA
:1019800090E3CA011590D940011590B374011590E8
:1019900095BD011590CFEF011590D98A011590DB07
:1019A00036011590DB7B011590AE24011590CC2CEF
:1019B000011590A187011590DF82011590B8DA0119
:1019C0001590C01D011590D9D201159098A501154B
:1019D000908C3A011590920B013F90D34E013F90AD
:1019E000D1F3013F90A726011590AA57011590CA7F
:1019F000A5011590C433011590C99B011590C153E1
:101A0000011590B825011590B98D011590D8A70141
:101A10001590D196011590CDA2011590C0B8011571
:101A2000909F25011590DDC3011590B76C011590AD
:101A3000CD280115908DDC011590E260011590DA3A
:101A400061011590DD0C011590DFB6011590DF17CF
:101A5000011590E15A011590B293011590E36901C7
:101A60001590E3A7011590BEE4011590DF4D011517
:101A700090E049011590D71A011590B44B011590CB
:101A8000E184011590BA3F011590C915011590E444
:101A90000B011590E3F1011590DAA8011590AB50F8
:101AA000011590C550011590E27F011590CE90016F
:101AB0001590CBAC011590E3FA011590AF08011514
:101AC00090D8F5011590C280011590D85801159055
:101AD000A94F011590D3F3011590E0790115908A73
:101AE0007B011590A83D011590E103011590A057C9
:101AF000011590911C011590BAEB011590B5E50107
:101B00001590CF7C011590C77E011590C66A01150E
:101B100090DC8C011590BCEA011590C1EC01159088
:101B2000C806011590BC11012A908DE2012A9091FE
:101B300047012A90D568012A90E36C012A90C207D8
:101B4000012A90DEE3012A90DE7A012A90D7EB0188
:101B50002A90CBC6012A90D25A012A90DA3F012A54
:101B600090D180012A90D60A012A90E4CD012A90D2
:101B7000CCE3012A90D886012A90D74C012A90EA1A
:101B800002012A90C85B012A90E617012A90D91D0C
:101B9000012A90CED1012A90E949012A90DCAD01B9
:101BA0002A90E987012A90E477012A90DB41012AF3
:101BB00090E909012A90D4B9012A90E576012A908A
:101BC000E522012A90DBBE012A90DD21012A90DD69
:101BD00094012A90E7A0012A90D327012A90DAC124
:101BE000012A90A934012A90E3C6012A90D3F30177
:101BF0002A90D9B1012A90E420012A90E9C5012A4E
:101C000090EA38012A90EA6E012A90DC36012A9087
:101C10008000012A908500012A90EAA4012A90A45C
:101C2000E3012A90AB2C012A90AD1D012A90C4A794
:101C3000012A90BF47012A90E835012A90E87C01EB
:101C40002A90E30E012A90E133012A90E192012AC1
:101C500090E1F1012A90DF49012A90DFAB012A903F
:101C6000E250012A90E00D012A90E06F012A90E2F3
:101C7000AF012A90E0D1012A90E666012A90E6B5EC
:101C8000012A90E704012A90B6B8012A90BDAE015E
:101C90002A90D0A3012A909940012A90A059012AA4
:101CA00090C35D012A90D6AB012A90C0A7012A906B
:101CB000B4D0012A9096A7012A90DE07012A90C984
:101CC00081012A90C5F0012A90AF0E012A90B0FA46
:101CD000012A90CDDD012A909BA9012A90CAA50175
:101CE0002A90E753012A90EABF012A90EACB012A01
:101CF00090EAD5012A90E7EC012A909E02012A90F1
:101D00009407012A90B2E5012A90A2AF012A90C758
:101D100033012A90CFBF012A90A716012A90B888D4
:101D2000012A90E5C7012A90D76A011590BD940158
:101D300015000220E7E86480F8E933E83360110415
:101D400060F0ED33EC337009E8FCE9FDEAFEEBFFEF
:101D5000220460DED3EB9FEA9EE99DE8C2E78CF0A7
:101D6000C2F795F0400CE8CCF8E9CDF9EACEFAEBF1
:101D7000CFFB1220B285D0F05804700320D5B3E811
:101D80000470075002B2D50220F192D5EC0460F73E
:101D9000E4CCC0E0C398F8603B94186008400DD0D4
:101DA000E0FB0220C9E4FBFAC9FC8028E830E40625
:101DB000E4C9FBE4CAFCE830E305E4C9CACBFCE8AB
:101DC00054076010F8C3E913F9EA13FAEB13FBECBC
:101DD00013FCD8F130F52FC3E49CFCEF9BFFEE9A87
:101DE000FEED99FDD0E0FBEF4E4D4C701222DB036F
:101DF0000220EEEC2CFCEF33FFEE33FEED33FDED75
:101E000030E7EB0220C9EF2BFFEE3AFEED39FDD0B3
:101E1000E0FB50130BBB00030220F1ED13FDEE13AA
:101E2000FEEF13FFEC13FC0220C9EC4D6011E849F2
:101E30007017ED33EC3304600DE4FCFFFEFD22E986
:101E400033E8330470F80220E71220B25804600926
:101E5000E4CC248150062850090220F128400302D6
:101E600020EEC0E0EB4A7044B98006D0E0FB0220CF
:101E7000DDEF4E701CBD8008EBFFEAFEE9FD80EB54
:101E8000E98DF0A4FEE5F0021F13E9CDF9EAFEEBBF
:101E9000FFEF89F0A4FCE5F0CE89F0A42EFFE43535
:101EA000F0CD89F0A42DFEE435F08067EF4E70058B
:101EB000BD80D780C3EF8BF0A4ACF0EE8BF0A42CE8
:101EC000FCE435F0F8EF8AF0A42CE5F038FCE433BC
:101ED000CB8DF0A42CFCE5F03BF8EE8AF0A42CFCB2
:101EE000E5F038F8E433CF89F0A42CFCE5F038CFE6
:101EF0003400CE89F0A42FFFE5F03EFEE433C98D17
:101F0000F0A42EFEE5F039CD8AF0A42FFFE5F03ED7
:101F1000FEE43DFD33D0E0FB50070BBB000F022079
:101F2000F1EC2CFCEF33FFEE33FEED33FD0220C964
:101F30000220F1EC5D046005E8590470030220E71B
:101F40001220B2580460F6EC4860F2EC7004FDFE1A
:101F5000FF22C860DB2481C85009C3986002500684
:101F60000220EE9850CAF582E9294B4A7005AB82EF
:101F70000220DD75F0007C1A7880C3EF9BEE9AEDAD
:101F800099400DC3EF9BFFEE9AFEED99FDE842F0FC
:101F9000DC23ACF0D0E0FFD0E0FED0E0FDAB82204F
:101FA000E7101BEB60BAEC2CFCEF33FFEE33FEEDD9
:101FB00033FD0220C9E803F830E705C0F075F000F2
:101FC000EF2FFFEE33FEED33FD40B830E7C280AABD
:101FD00074F8CC6480CCC86480C8F582046043C3C4
:101FE000EB9FF5F0EA9E42F0E99D42F0E89C45F057
:101FF00060305018E5825FFFE582F42B5582FB507C
:10200000210ABA001D09B90019088016E5825BFB98
:10201000E582F42F5582FF50090EBE00050DBD006C
:10202000010CC3EB9FF5F0EA9E42F0E99D42F0E817
:102030009C45F06007CC4820E701B3EC2275F02006
:10204000800E75F010800575F0087D007E007F0021
:102050003392D530D503122671EC334010EF33FFA5
:10206000EE33FEED33FDEC33FCD5F0ED22E5F0244C
:102070007EA2D513CC92E7CDCEFF22EDD2E7CD33B1
:10208000EC3392D524814006E4FFFEFDFC22FCE403
:10209000CFCECDCC24E0501174FF80EDC3CC13CC57
:1020A000CD13CDCE13CECF13CF0470F030D5DE02DA
:1020B0002671E9D2E7C933E833F892D5EDD2E7CDFE
:1020C00033EC33FC5002B2D522EC30E7100FBF00E6
:1020D0000C0EBE00080DBD00040BEB6014A2D5EB86
:1020E00013FCED92E7FD2274FFFCFDFEFF22E4806D
:1020F000F8A2D574FF13FC7D80E480EFF920E73669
:1021000024F950037907E4F42402FBE58215827078
:10211000021583DBF6E024FB501BE96014E4F0E5D4
:1021200082158270021583E004F0B40A08E4F0D945
:10213000EE7401F00A22C2D522ED33EC3392D5FAC7
:10214000602AB4FF33EDC2E77BFF60067A21795E37
:10215000E4227A21796720D5047A217962224E61BE
:102160004E002B494E46002D494E4600E47A08F0B9
:10217000A3DAFC7B00740722C083C082ECC0E0EDD0
:10218000C0E0EEC0E0EFC0E0EA75F010A4CAABF02A
:1021900075F04DA42BFBE435F0FCEA2410FAEB3487
:1021A000C5FBEC34D9FCEDC2E7FF75F056A4F4246E
:1021B00011C5F0F434C58FF0A42AE5F03BE43CF0FF
:1021C00020E71412227FD0E0FFD0E0FED0E0FDD067
:1021D000E0FC121F338014F40412227FD0E0FFD001
:1021E000E0FED0E0FDD0E0FC121E2AD082D083E0D9
:1021F000FAEDD2E7CD33EC332482FBE4C3CF33CF07
:10220000CE33CECD33CD33DBF37B0775F00A84605C
:1022100004F0A31B0AE5F0F0A38FF0740AA4FFAC4E
:10222000F08EF0740AA42CFEACF050010C8DF0740A
:102230000AA42CFDE435F0F0A3DBDE740722ED33B5
:10224000EC33600A047003BD8004ECB2E7FC223F6B
:102250008000004120000042C80000447A0000468F
:102260001C400047C35000497424004B1896804C12
:10227000BEBC205A0E1BCA6753C21C749DC5AEFB60
:1022800060065407601C23231222ADEB543860090A
:102290001222991222A8121E2AECF8EDF9EEFAEF9A
:1022A000CB22EB1222A880F1543803241C90224F39
:1022B000FE93FC0EEE93FD0EEE930ECE93FF22E7FF
:1022C00009F608DFFA8046E709F208DFFA803E885F
:1022D000828C83E709F0A3DFFA8032E309F608DF96
:1022E000FA8078E309F208DFFA807088828C83E351
:1022F00009F0A3DFFA806489828A83E0A3F608DF0D
:10230000FA805889828A83E0A3F208DFFA804C8041
:10231000D280FA80C680D4806980F28033801080B9
:10232000A680EA809A80A880DA80E280CA80338919
:10233000828A83ECFAE493A3C8C582C8CCC583CC57
:10234000F0A3C8C582C8CCC583CCDFE9DEE7800D29
:1023500089828A83E493A3F608DFF9ECFAA9F0ED09
:10236000FB2289828A83ECFAE0A3C8C582C8CCC567
:1023700083CCF0A3C8C582C8CCC583CCDFEADEE835
:1023800080DB89828A83E493A3F208DFF980CC881A
:10239000F0EF60010E4E60C388F0ED2402B404003B
:1023A00050B9F582EB2402B4040050AF23234582D8
:1023B0002390230F73C2D530F707B2D563F0FF0522
:1023C000F030E70CB2D5F4048463F0FF05F080012F
:1023D0008430D502F40422BB010689828A83E0227C
:1023E0005002E722BBFE02E32289828A83E4932221
:1023F000BB010CE58229F582E5833AF583E02250A2
:1024000006E92582F8E622BBFE06E92582F8E222EB
:10241000E58229F582E5833AF583E49322BB010F37
:10242000F8E58229F582E5833AF583E028F0225029
:1024300009C58229F8E58226F622BBFE09C5822954
:10244000F8E22582F222F8EA2583F583E99328222F
:10245000BB010689828A83F0225002F722BBFE016B
:10246000F322F8BB010DE58229F582E5833AF58375
:10247000E8F0225006E92582C8F622BBFE05E925D0
:1024800082C8F222EF8DF0A4A8F0CF8CF0A428CE61
:102490008DF0A42EFE22BC000BBE0029EF8DF0842F
:1024A000FFADF022E4CCF875F008EF2FFFEE33FE1D
:1024B000EC33FCEE9DEC984005FCEE9DFE0FD5F054
:1024C000E9E4CEFD22EDF8F5F0EE8420D21CFEAD5D
:1024D000F075F008EF2FFFED33FD4007985006D55B
:1024E000F0F222C398FD0FD5F0EA22C5F0F8A3E080
:1024F00028F0C5F0F8E582158270021583E038F007
:1025000022BB010A89828A83F0E5F0A3F0225006FB
:10251000F709A7F01922BBFE06F3E5F009F319222B
:10252000EF2BFFEE3AFEED39FDEC38FC22E88FF0A0
:10253000A4CC8BF0A42CFCE98EF0A42CFC8AF0ED4A
:10254000A42CFCEA8EF0A4CDA8F08BF0A42DCC38FE
:1025500025F0FDE98FF0A42CCD35F0FCEB8EF0A436
:10256000FEA9F0EB8FF0A4CFC5F02ECD39FEE43CF0
:10257000FCEAA42DCE35F0FDE43CFC2275F0087594
:102580008200EF2FFFEE33FECD33CDCC33CCC582AE
:1025900033C5829BED9AEC99E58298400CF582EE6A
:1025A0009BFEED9AFDEC99FC0FD5F0D6E4CEFBE452
:1025B000CDFAE4CCF9A88222B800C1B90059BA001A
:1025C0002DEC8BF084CFCECDFCE5F0CBF97818EF75
:1025D0002FFFEE33FEED33FDEC33FCEB33FB10D776
:1025E00003994004EB99FB0FD8E5E4F9FA22781837
:1025F000EF2FFFEE33FEED33FDEC33FCC933C91092
:10260000D7059BE99A4007EC9BFCE99AF90FD8E0C3
:10261000E4C9FAE4CCFB2275F010EF2FFFEE33FE95
:10262000ED33FDCC33CCC833C810D7079BEC9AE808
:1026300099400AED9BFDEC9AFCE899F80FD5F0DA89
:10264000E4CDFBE4CCFAE4C8F922EF5BFFEE5AFEDE
:10265000ED59FDEC58FC22EF4BFFEE4AFEED49FD33
:10266000EC48FC22CFF4CFCEF4CECDF4CDCCF4CCDC
:1026700022C3E49FFFE49EFEE49DFDE49CFC22EB6C
:102680009FF5F0EA9E42F0E99D42F0EC6480C86458
:10269000809845F022EB9FF5F0EA9E42F0E99D42DA
:1026A000F0E89C45F022E8600FECC313FCED13FD4D
:1026B000EE13FEEF13FFD8F122E86010ECA2E7134F
:1026C000FCED13FDEE13FEEF13FFD8F022E8600FD0
:1026D000EFC333FFEE33FEED33FDEC33FCD8F122D4
:1026E000BB010DE58229F582E5833AF58302272AAD
:1026F0005007E92582F8022860BBFE07E92582F829
:1027000002286CE58229F582E5833AF58302287870
:10271000BB010789828A830227425005E9F8022813
:1027200088BBFE05E9F802289422E0FCA3E0FDA3A3
:10273000E0FEA3E0FF22E0F8A3E0F9A3E0FAA3E0C3
:10274000FB22ECF0A3EDF0A3EEF0A3EFF022A882C1
:102750008583F0D083D08212276512276512276502
:10276000122765E473E493A3C583C5F0C583C8C588
:1027700082C8F0A3C583C5F0C583C8C582C822BB83
:10278000010789828A8302274E5005E9F80228A0B2
:10279000BBFE05E9F80228B922A42582F582E5F0FE
:1027A0003583F58322E0FBA3E0FAA3E0F922F8E009
:1027B000FBA3A3E0F925F0F0E582158270021583F2
:1027C000E0FA38F022F8E0FBA3A3E025F0F9F0E509
:1027D00082158270021583E038FAF022EBF0A3EA4A
:1027E000F0A3E9F022E493FB740193FA740293F9E5
:1027F00022D083D082F8E4937012740193700DA3F9
:10280000A393F8740193F5828883E4737402936848
:1028100060EFA3A3A380DFD083D082F8E49370128B
:10282000740193700DA3A393F8740193F5828883C8
:10283000E473740293B5F0067403936860E9A3A38C
:10284000A3A380D88A838982E473A3F8E0C5F02526
:10285000F0F0E582158270021583E0C838F0E822B6
:10286000E6FC08E6FD08E6FE08E6FF22E2FC08E2D8
:10287000FD08E2FE08E2FF22E493FC740193FD747C
:102880000293FE740393FF22ECF608EDF608EEF6D1
:1028900008EFF622ECF208EDF208EEF208EFF22271
:1028A000D083D082E493F608740193F608740293FF
:1028B000F608740393F6740473D083D082E493F221
:1028C00008740193F208740293F208740393F2748B
:1028D0000473E5082453F582E43419F583E0050810
:1028E00022901950300A03901953E475F001122711
:1028F000AE0223D72003E97F2ED2038018EF540FB6
:102900002490D43440D4FF30070BEF24BFB41A0016
:1029100050032461FFE50960021509050CE50C7000
:1029200002050B300A0E901950E475F0011227AE23
:10293000EF0224500268377403D20A8003E4C20A0B
:10294000F5089019501227DCE4F509F50BF50CE5B4
:102950000960077F2012291580F5750AFFC204C29D
:1029600003C205C206C208C209C20B1228E1FF70E9
:102970000D300A057F00122926AF0CAE0B22B425BC
:102980005FC2D5C2071228E1FF24D0B40A00501A52
:1029900075F00A780930D50508B6FF0106C6A426E9
:1029A000F620D5047002D20680D924CFB41A00EFE5
:1029B0005004C2E5D207022C18D20480C6D203808C
:1029C000C0D20580BCD2D580BAD20880B47F201294
:1029D00029152005077401B5090040F11228D2FF1E
:1029E00012291502294FD20BD20980951228D2FB49
:1029F0001228D2FA1228D2F94A4B700679167A2D8B
:102A00007BFF20052EE509602A7E008E82758300FB
:102A10001223F060060EEE650A70F0C2D5EBC0E03E
:102A2000EAC0E0E9C0E0EE122C79D0E0F9D0E0FA9B
:102A3000D0E0FB1223D7FF60AAEBC0E0EAC0E0E9D8
:102A4000C0E0122915D0E02401F9D0E03400FAD01A
:102A5000E0FBE50A0460DCD50AD98087D20580A2B4
:102A6000122C5B60F7E50A7001041220FCA90A60D1
:102A70000DE50A600914F50A122D03EF60F3EA3040
:102A8000E702F404C3995079EAF4250A0430E70117
:102A9000E404F50A800D122C5B60C1EA050A250AE0
:102AA0001220FCEA90197FF030E701E4250A04D5F2
:102AB0000A0420080114122C79E4C0E0122D0390BE
:102AC000197FE0601320E70714F01228FD8022042C
:102AD000F0D0E014C0E07F001228FDE50A60071284
:102AE00028F4150A800B3008031228F4D0E00229DC
:102AF0004FD0E00480C4122C5B609EE50A041220D3
:102B0000FC90197FEAF0E50A200802600104240421
:102B1000122C7974FF04C0E0122D031228FDE50A7F
:102B200020080260031228F4D0E0B50AE87F4512BD
:102B3000290790197FE07F2B30E7047F2DF404C034
:102B4000E0122915D0E075F00A84C0F01228FED0FA
:102B5000E01228FE02294F791080027908C209C2CA
:102B60000B8008D2D5790A8004790AC2D5E50A0417
:102B70007002F50AE4FAFDFEFF1228D2FC7B082061
:102B800004131228D2FD7B1030030A1228D2FE1241
:102B900028D2FF7B20EC3382D592D55013C3E4308A
:102BA00003069FFFE49EFEE42004039DFDE49CFCDD
:102BB000E4CBF8C204EC700CCFCECDCCE824F8F80E
:102BC00070F38017C3EF33FFEE33FEED33FDEC33CC
:102BD000FCEB33FB994002FB0FD8E9EB300405F81E
:102BE000D0E0C448B204C0E00AEC4D4E4F78207BE0
:102BF0000070C2EAB50A0040BCC0E0122C7BD0F0E5
:102C0000D0E0200404C4C0E0C4B204C0F01228FE26
:102C1000D0F0D5F0EB02294F1227F129EC532B57B6
:102C20005829BD4C29B9422B5B4F2B63442B634978
:102C300029D2432B69552A96462AF6452A60472D04
:102C4000365029C12D29C52E29E82B29C92329E66B
:102C5000202D1F2A298148000029E0E50AB4FF033E
:102C6000750A061228D2FC1228D2FD1228D2FE12B2
:102C700028D2FF901978022139790AA2D5200614AA
:102C8000300809B910020404B9080104A2D52009CA
:102C9000025001042005689205B509005034C0E0D7
:102CA0007F203006197F30A20572097208500F127A
:102CB0002CD2C205C209C208C20B7F30800F300877
:102CC00003E9C0E0122915300803D0E0F9D0E0B5DF
:102CD00009CC3008177F30B9100C1229157F5830F5
:102CE00007077F788003B908031229153005057F8F
:102CF0002D0229157F20200BF87F2B2009F322922B
:102D00000580CF7F00B40700500B2478F582E434AF
:102D100019F583E0FF22286E756C6C2900D204122D
:102D200028D23004F8C204780930D50108F6022907
:102D3000812D504349581228D22403B40500400184
:102D4000E4902D3193122906743A122906D20675A1
:102D50000904022B572A2A205245534554204D4F2F
:102D600044454D202A2A0047323020496E69636964
:102D7000616C697A61646F00434C49503A20222AA1
:102D80002E004C6C616D61646120656E7472616EC1
:102D900074653A20257300434D4752002A2A2A20A1
:102DA0005041515545544520524543494249444FAD
:102DB000205820534D53202A2A2A002A2A2A2050FC
:102DC000415155455445204552524F52202A2A2AF6
:102DD00000434D54493A2A2A2A2A2A2A2A2A2A0012
:102DE0002A205041512E20524543494249444F2008
:102DF0005820534F434B4554203D20256275202ACF
:102E0000002A2A2050415155455445204552524FE1
:102E100052202A2A004347534E3A2A2E0043524555
:102E2000473A2A2A2A2A2A2A2A2A2A002A20524FBC
:102E3000414D494E4720414354495641444F202A71
:102E4000002A204D4F44454D204552524F52202AD2
:102E50000043475052533A2A2A0041542B434741DA
:102E600054543F002A2053494E20434F4245525468
:102E70005552412047505253202A00434741545451
:102E80003A2A2A002A20434F4245525455524120A3
:102E900047505253204F4B2A0041542B4347415433
:102EA000543D31004F4B004D4A44433A2A2A2A2AC6
:102EB000002A20256C75202A002A204348495020EA
:102EC0004F4B202A002A2043484950204552524F58
:102ED00052202A002B434F50533A2A2A2A2A2A2AC0
:102EE0002A2A004D495043414C4C3A202A004D4972
:102EF0005043414C4C3A2A2A2A2A2A2A004D49504A
:102F00004F50454E3A2A2A2A2A004D49504F5045E3
:102F10004E3A2A2E004353513A2A2E002A20425577
:102F2000454E41205345D1414C2047505253202A11
:102F3000002A20504F4341205345D1414C20475057
:102F40005253202A004D495053454E443A00617473
:102F50002B6D6970707573683D2563004D49505243
:102F60005544503A003343002A2053494E205245DD
:102F7000535055455354412044454C2053455256D7
:102F800049444F52202A004F4B2A2E0041542B43D4
:102F90004D47533D22257322003E00434D47533A8F
:102FA0002A2E0061742B6367736E000041542B431B
:102FB0005245473D320041542B435245473F004163
:102FC0005445300041542B4D414D55543D312C302A
:102FD0000041542B4D41464541543D312C30004178
:102FE000542B4D41464541543D322C310041542B28
:102FF00043414C4D3D310041542B4D4146454154D8
:103000003D342C310041542B435254543D256275BC
:103010002C300041542B4D41564F4C3D312C312C1E
:103020002562750041542B4352534C3D2562750077
:1030300041542B4D4D4943473D2562750041545A3B
:103040000041542B434D47463D310061742B636D65
:1030500067723D2562750061742B636D67643D2561
:1030600062750061742B6373710061742B636F7000
:10307000733F0061742B6370696E3F0041542B4DA8
:103080004A4443203D20310041542B4D4A44433FA4
:103090000061742B63677072730061742B636C69D9
:1030A000703D310061742B636E6D693D332C312CA2
:1030B000302C302C300061742B636D67663D31001D
:1030C00041542B4D495043414C4C3F0061742B6D92
:1030D000697063616C6C3D312C25730061742B6DDC
:1030E00069706F70656E3F0061742B6D69706F70F1
:1030F000656E3D002C253034752C222562752E25F9
:1031000062752E2562752E256275222C25642C3160
:103110000061742B6D6970666C7573683D25630082
:10312000415448004154410041544425733B0061DF
:10313000740041545332343D310030313233343530
:10314000363738394142434445464552524F520082
:103150006572202A2A0025303458003E524750001C
:103160002530326275253032627525303262752520
:103170003032627525303262752530326275002B2F
:103180002530376C64002530386C64002B253038CE
:103190006C64002530396C6400253033627525304D
:1031A00033750025303262752563256325632563F9
:1031B00000475F5F5F00472530336275002530327E
:1031C000627525303362750025303262753B534E8F
:1031D0003D002530326275003E52475042003E525B
:1031E0004647003E5246554D2530326275253032F5
:1031F0006275253032627525303262752530326253
:10320000752530326275003E524944003E524950A5
:1032100025303162752025303362752E25303362BA
:10322000752E25303362752E2530336275003E527F
:10323000435325303162752025303362752E253099
:103240003362752E25303362752E25303362753A20
:1032500025303475003E5249542530316275253091
:10326000337525303375003E524D5425303262752A
:10327000253032627525303262752530326275250F
:103280003032627525303262752530326275002B1E
:103290002530336275002D2530336275003E525360
:1032A0005425303262752530316275003E524E53DE
:1032B00025303362752530336275003E5246530027
:1032C0003E524658003E52504D2530327530303017
:1032D0003025303275003E52534D53532563003E26
:1032E00052534D53492563003E5246554D004353BA
:1032F00025630043492563003E524844253032622D
:10330000752530337525303375003E52494E2530D2
:103310003262752530326275253032627525303261
:103320006275253032627525303262752530326221
:1033300075003E524552524F5250415353003E5237
:103340004144253032627525303262752530326253
:1033500075253032627525303262752530326275DE
:103360002530326275005F25303475005F253034BA
:10337000752530326275003E524C4F47256325302B
:103380003575003E524D4925303262752530336225
:10339000752530326275253033627525303362759C
:1033A000003E52474825303262752530326275251D
:1033B00030326275253032627525303262752530C3
:1033C000326275003E524350502530336275003EE4
:1033D000524652204458782078782E7878003E5211
:1033E00048572530326275003E52444D25303362D5
:1033F000752530336275253033627525303362753B
:10340000003E5256452530326275253033627525AF
:1034100030336275003E5253494D25632530336287
:1034200075003E525649003E52534E2573003E529F
:10343000534E2D2D2D2D2D2D2D2D2D2D003E524158
:103440004325303162752530326275003E5243416A
:10345000253032627525303475253034752530328B
:103460006275003E524345003E524358003E52446E
:1034700055253034752530316275003E524454254F
:1034800030326275253032627525303262752530F2
:1034900032627525303262752530326275253031E1
:1034A0006275003E52444625303162752573003EF8
:1034B00052465520253032627525303262752530EE
:1034C00032627525303262752530326275253032B0
:1034D00062750025303475002424242400253033FF
:1034E0006275003E524943256325303262752530AE
:1034F000326275003E52544D2530326275253035AA
:1035000075256325635F25303575003E52544D4463
:10351000003E524F54003E4552524F5225303362C6
:1035200075003E41434B003E52465544425F4F4B6F
:10353000003E52494D45003342332E3431002A2A91
:103540002A2A2A2A2A2A2A2A2A2A2A2A2A2A2A2ADB
:103550002A2A2A2A2A2A2A2A2A2A2A00232A2A2AFC
:103560002A0025303458003E454F46003E41434B2B
:10357000004F463D2A2A2A2A002A2A20524553452E
:1035800054204D4F44454D202A2A002A2053494EAD
:1035900020475053202A0041434B003E51414400F4
:1035A0000000FF1CB93E2A44552A0000FF1CC33E00
:1035B000514655440000FF18FE3E5146552A000072
:1035C000FF1D183E2A46554D2A00FF1CCD3E2A49B4
:1035D00043000000FF1D133E2A4454000000FF1C5E
:1035E000C83E51494D450000FF1D223E2A49502A40
:1035F0000000FF1D043E2A43532A0000FF1D093E20
:103600002A49542A0000FF1D0E3E2A4D49000000A1
:10361000FF1CAF3E2A504D000000FF1CB43E2A564E
:1036200049000000FF1CD73E2A534D530000FF1CE9
:10363000D23E2A54442A2A00FF1C963E2A454400C2
:103640000000FF1C0F3E2A48442A2A00FF19B23E00
:103650002A4143000000FF1CBE3E2A53494D2A0068
:10366000FF1C913E2A41504E2A00FF1C2D3E2A5637
:1036700045000000FF1C873E2A49442A0000FF1C29
:10368000DC3E2A544D000000FF1C9B3E2A4F542A6A
:103690000000FF1CA03E2A4C4F472A00FF1A343E70
:1036A0002A44462A0000FF1C323E51494E000000C9
:1036B000FF1CE13E514652000000FF1C373E514EB8
:1036C00053000000FF1C783E2A4341000000FF1C0D
:1036D0008C3E2A4345000000FF1C233E514D540000
:1036E0000000FF1CF53E2A5354000000FF1CFA3E68
:1036F000535244000000FF1CE63E53524D000000B0
:10370000FF1CEB3E535247000000FF1CF03E5146A9
:1037100053000000FF1C7D3E514658000000FF1C76
:10372000823E2A534E000000FF1CFF3E5147464296
:103730000000FF1C643E514750420000FF1C733ED6
:1037400051474F500000FF1C693E51475000000098
:10375000FF1C4B3E514752000000FF1C5F3E51478B
:1037600046000000FF1C503E514647000000FF1C71
:10377000553E514646000000FF1C5A3E5147480046
:103780000000FF1C3C3E51474A460000FF1C6E3EB5
:103790002A4358000000FF1C283E514350500000AF
:1037A000FF1C413E2A4857000000FF1CA53E514324
:1037B0004E460000FF1C463E2A5045000000FF1DFB
:1037C0001D3E2A444D000000FF1CAA3E2A555331DD
:1037D0000000FF19083E2A5250000000FF1ABB3EAD
:1037E0002A5243000000FF1ACF3E2A5553300000F2
:1037F000FF1AD93E2A4F44000000FF198A3E2A4C86
:1038000044000000FF1A9846494E000000000000E6
:1038100000000000000000000000000000000000A8
:103820000000000000000000000000000000000098
:103830000000000000000000000000000000000088
:103840000000000000000000000000000012191736
:1038500012194E1219761219AD1219CB1219B7128C
:103860001AB1121ACA1269AD7FF4123ACD901BB088
:10387000EFF07FFE123ACD901BB1EFF07FE9123AE4
:10388000DE901C09EFF0D394024007E4F07FE912C8
:103890003AD57FFC123ADE9010C5EFF0C394004099
:1038A00006E0D3940240239010C5E0FFC394094082
:1038B00006EFD3940D4013E49010C5F0901C09E07E
:1038C000FD7BA07FFC7E01121A3E7F0B123B3B90DA
:1038D0001924EFF0D3940240077F0B7E02123B3392
:1038E0007F0C123B3B901924EFF0D39412400B7BDA
:1038F000A0E4FD7F0C7E02121A3E7FD7123AE690BA
:103900001BEBEFF0C3941E4006E0D394FA400B90FB
:103910001BEB7478F07FD7123AD57FE2123AE6902B
:103920000809EFF0D3946340087403F07FE2123A81
:10393000EE7FD6123B179007F4EFF0D39463400864
:103940007402F07FD6123AEE7DA07F547E02121AE6
:103950004390080AEFF0D394F0400BE06008740540
:10396000F07F54123B0E7DA07F557E02121A4390C9
:10397000080BEFF0D394F040087405F07F55123B2C
:103980000E1269AD7FDD123B17901BA4E0BF01054D
:103990004401F0800354FEF07FDE123B43901BA4F1
:1039A000E0BFFF054404F0800354FBF0121D2C120D
:1039B00069AD7FE7123B4390080CEFF0C3940040E1
:1039C00006E0D39402401F90080CE0FFC394094026
:1039D00006EFD3940D400FE490080CF07BA0FD7F20
:1039E000E77E01121A3EE4901924F0901924E0FFBA
:1039F000C394085065EF75F002A42480123B1F9019
:103A00001A4D122799EEF0A3EFF0901A4D12615261
:103A10004010ED75F002A42480123AF7901A4D126E
:103A2000619C901924E075F002A42490123B1F9031
:103A30001A5D122799EEF0A3EFF0901A5D12615211
:103A40004010ED75F002A42490123AF7901A5D121E
:103A5000619C901924E004F08091123AC39007FE13
:103A6000EFF0BFFF077FDF7E01123B339007FEE0E0
:103A7000601B7F0B121A6B9007FEEFF0BFFF0E1258
:103A80003AC39007FEEFF0FD7F0B121A70C21112BD
:103A900054D21219A31257AB121A89121A7F121993
:103AA0005D7DA07FFF7E01121A43901BB2EFF0D321
:103AB0009463400CE4F07BA0FD7FFF7E01121A3E70
:103AC000021A667DA07FDF7E01121A43227DA07E4E
:103AD00001121A43227BA0FD7E01121A3E227DA014
:103AE0007E01121A43227DA07E01121A43227BA07E
:103AF000FD7E01121A3E22FFE5F03410FE7BA07D10
:103B0000F47C01121A4D901924E075F002227BA07A
:103B1000FD7E02121A3E227DA07E01121A4322FF70
:103B2000E5F03410FE7DA0121A48901924E0FD75CE
:103B3000F002227BA0E4FD121A3E227DA07E02123A
:103B40001A43227DA07E01121A4322901921EFF020
:103B5000126A6F126910126B52D21ED21DC2261247
:103B60005835126A1575840FC2A7D2A6D293E49075
:103B70001922F0123D70E0C3946440F7126B1712E3
:103B80006B78126A831269FC1269AD901921E0709A
:103B90005F901BA312617BA312617BFF125A40123C
:103BA00019671219217D1E7C007F0312639F121872
:103BB000F97F19121A6B901923EFF020E009901584
:103BC000E7E04480F080177F3F121A6B901873EF84
:103BD000F0901923E054FEF0FD7F19121A70126163
:103BE0006460057F0812639F7BFF7A59793F8034B8
:103BF0009018ED7403F012616E901921E0B4020A7E
:103C0000901902126167600C800512616460057F83
:103C10000812639F9015E6E04440F030100B7BFFE4
:103C20007A59794DE4FD1219DAE4901922F0123D27
:103C300070E0B40613123D647BFF7A597961E4FDAC
:103C40001219DAD20012666C123D8E901923EFF031
:103C5000F460DB123D8E9015DAEFF0BFFF0CE4F05C
:103C60007BA0FD7F527E02121A3E125FD51269AD13
:103C70007B007A007913121A07EF6003023D197B6B
:103C8000FF7A59796FFD1219DA12618E121A027DCC
:103C90009F7FF4123D7A123D82E4901922F0901930
:103CA00022E0FDC39405501612618E1219F81261BC
:103CB0008E901922E0FD1219EE12619580E09008B5
:103CC0000074BEF0A3740CF0A37471F0A374EAF056
:103CD000123D64E4901922F0901922E0FFC394038E
:103CE00050177B017A087900901929EFF07D017C4B
:103CF000101219E412619580DFE4901922F09019F6
:103D000022E0FDC39402500E7BFF7A59798E121A7D
:103D10001612619580E8121A257DA07FFF7E0112A0
:103D20001A43901BB2EFF0D394634011E0D3946335
:103D30004008E4F0FD7FFF123D7A123D8212185ECA
:103D40001218E51218771261831269AD12384D12FC
:103D50006A447D1E7C007F0712639F7D787C007F14
:103D60000202639F7BA0E4FD7F527E02121A3E2274
:103D70001269AD901922E004F0227BA07E01121A94
:103D80003E227BA0E4FD7FFE7E01121A3E227DA032
:103D90007F527E02121A4322C18EC10FC110411BF5
:103DA000AC20411BAD64411BAE3C411BAF3CC1117B
:103DB000421BB40000421BB6FFFF411BA220411C66
:103DC0005900411C5A00411C5B00411C5C00C12E83
:103DD000C1214107F3034107F4054107F5054107F8
:103DE000F6024107F70A4107F80A4107FBFF4107BE
:103DF000FCFF4107FD004107FF41421BE900004273
:103E00001BE50000421BE700004218680000421852
:103E10006A0000C1A4C125C115411873004118747E
:103E2000004118C000C116C117C1184118C100C116
:103E3000194118E4004218E500004118E700411854
:103E4000E8004118EB614118EC014118ED034119FC
:103E500006FF42186C000041186E0541186FF041D2
:103E600018700A4118711941187219411C2E00412D
:103E70001C2F00411C3000411C3100411C3200410C
:103E80001C3300411C3400410D3F00410D400041F6
:103E900010BB004110E5FF4110E6FF411C6B0041E3
:103EA0001B8900C1AF4115D300441770000000000A
:103EB000C130411A9A00421AE3003CC131421AE56E
:103EC00000004119F6004219F80000C132C1284132
:103ED0001C6D02421C69FFFF411C0900411C0A00C5
:103EE000411C6FFF4114790041147A0041147B009A
:103EF00041147C0041147F0041148000411483016F
:103F0000411484014115C1004115C4004115C5008B
:103F100041147800411BBE05441BC800000000414D
:103F20001BCC00411BB900411C7000411A4C0041E0
:103F30001A8100C134411A4B00C12BC1AA411AE7B2
:103F400000411C7200C12C421BEC0000421BEE0021
:103F500000421BF00000C12D411BF245411BF30044
:103F6000411C7300003E52454425303362752020C9
:103F700020002573253032750025732530327525D4
:103F800063256325635F5F253033627500257325E4
:103F9000303275253035752530336275003E524517
:103FA000443030302033004F54000010544D000096
:103FB000184354000028494E000038564900004874
:103FC0005349000060564500008054460000904769
:103FD000520000A854440000B048440000C04144CE
:103FE0000000C854450000D046480000D858500092
:103FF00000F84730000100473100016452500001D1
:104000008100000003E84950000000534D00000902
:104010004C4F00000E4F54000010544D0000184348
:104020005400002856490000484D440000E84C5414
:104030000000E941540000F343540000F44D5300E4
:1040400000F552530000F74953000189444C000128
:104050008A4D4100018B4D4500018C00000003E8B2
:1040600047505F000001494E5F00000341445F007C
:1040700000044D545F00000747465F0000084746B4
:104080004200000947504200000A46475F00001204
:1040900046465F00001356455F00002F465543001B
:1040A00000334655560000354655520000394655F6
:1040B00049000034474A4600004B534D3000004C45
:1040C000534D3100004D534D3200004E534D3300DF
:1040D000004F534D3400005053505F000052534482
:1040E0005F000053434E4600005758505300005C99
:1040F00046555100004149435F000066434F5F0051
:10410000006C55533100006F55533000006E474F1F
:10411000500000734C445F0000744D565F00007601
:104120000000000003E8C0E0C0F0C083C082C0D03F
:1041300075D000C000C001C002C003C004C005C0EB
:1041400006C007901984E584F075840253C87F90F7
:104150001BACE014F0E060030242B87420F0125D82
:10416000DF1264A11245FD1244897F0412671D907D
:1041700007EDE07002A3E060069007ED125F4F903C
:1041800007EFE07002A3E060069007EF125F4F9028
:1041900007F1E07002A3E060069007F1125F4FC3E1
:1041A0009016EAE094609016E9E094EA5007E4750E
:1041B000F0011224EB901BADE014F0E0FF643260DC
:1041C00003EF7029301204C2128002D212901BB089
:1041D000E0FF30E707901A4CE020E70BEF20E70BF9
:1041E000901A4CE020E704D2288002C2281269709D
:1041F000901BADE060030242B87464F0D229121A39
:10420000937F0E12671D7F0D12671DE4FF12671D5D
:104210007F0512671D7F0712671D7F0312671D7FD1
:104220000212671D9010E5E06006F46003E014F0F0
:104230009010E6E06006F46003E014F07F09126776
:104240001DE4FF125C22E4FF125227126AE3901B66
:10425000AEE014F0E0FD20E007901BA4E04402F083
:10426000ED7055901BAE743CF0901BAFE075F005FF
:1042700084E5F07007901BA4E04440F09007F8E05C
:10428000600214F07F01125C227F011252277F0A24
:1042900012671D7F0C12671D7F0812671D7F0112B8
:1042A000671D901BAFE014F0E0700D743CF07F02CE
:1042B000125C227F02125227901984E0F584D00705
:1042C000D006D005D004D003D002D001D000D0D089
:1042D000D082D083D0F0D0E0323E43414D424941BC
:1042E00052204649524D574152450056454C2A00EE
:1042F00056454C4F434944414400205441434F20CC
:104300003D202530336275206B6D2F6800204750AB
:1043100053203D202530336275206B6D2F680020BF
:1043200041637475616C203D202530336275206BCC
:104330006D2F68002056656C205461636F204861C2
:1043400062203D2025627500205061726B696E67A6
:10435000203D2025627500204D6F762E2044657427
:10436000203D202562750020436F642E2043686F36
:10437000666572203D2025580020436F6E7461638E
:10438000746F203D202575002052504D2054203D53
:104390002025752052504D0052504D2045203D2083
:1043A0002575003E4732303D2A2E0052504D204F99
:1043B0004E0052504D204F464600475053204F4E1E
:1043C00000475053204F464600494E5354414C41FC
:1043D000444F52204F46460046494E204D4F444FD1
:1043E00020494E5354414C41444F5200494E53547E
:1043F000414C41444F52204F4E004D4F444F2049B5
:104400004E5354414C41444F52004445425547207D
:104410004F4E004D4F444F204445425547004556AE
:10442000454E544F53204F4E004D4F444F2045565C
:10443000454E544F53204F4E004445425547204F60
:1044400046460046494E204445425547004556459C
:104450004E544F53204F4646004D4F444F20455633
:10446000454E544F53204F464600424F5252415200
:1044700020544F444F00424F5252414E444F004649
:10448000494E004552524F5200E4901985F0901960
:1044900085E0FFC3940840030245EEE0FE7401A8E6
:1044A00006088002C333D8FCFD74922E124C15E02E
:1044B0001227F144CF0044CF01459603455A0445E5
:1044C0001A05459606455A07451A08000045E5EFC6
:1044D000124BB8E0FEA3E04E70030245E59019854B
:1044E000E0FF124BB874FFF5F01224EBEF124BB85B
:1044F000E0FEA3E04E60030245E5901985E0FF244D
:1045000092124C15E0B4010AEF124BC8124C39025A
:1045100045C6124BC44DF00245C6901985E0FF1206
:104520004BB8E0FAA3E04A6023124BA0E0FAA3E004
:104530004A7019124C12E0901985B40508124BC745
:10454000124C398005124BC74DF0807A75F0641219
:104550004C6860030245E50245E0901985E0FF12D2
:104560004BB8E0FAA3E04A6023124BA0E0FAA3E0C4
:104570004A7019124C12E0901985B40408124BC706
:10458000124C398005124BC74DF0803A75F0191264
:104590004C687051804A901985E0FF124BB8E0FAE0
:1045A000A3E04A602F124BA0E0FAA3E04A70251264
:1045B0004C12E0901985B40308124BC7124C398095
:1045C00005124BC74DF0901985E02492124C1574DA
:1045D000FFF08011901A4BE075F00C84E5F0700547
:1045E000124BC46DF0901985E004F002448E901ACD
:1045F0004BE004F0E075F0C884E5F0F022AC84757F
:10460000840FE4901A6EF030EB04E04401F030DCEB
:1046100007901A6EE04402F030DF07901A6EE04413
:1046200004F030DE07901A6EE04408F020DD0790B9
:104630001A6EE04410F030EA07901A6EE04420F061
:1046400020E807901A6EE04480F0901A6EE0FF9028
:104650001A4CE06F901A6DF07003024728E4FD12C7
:104660004C278005C333CE33CED8F9FF901A6DE0C6
:10467000FBEF5B7003024716124BD8E475F0011292
:1046800024EB124C278005C333CE33CED8F9FF90EC
:104690001A4CE0F9FBEF5B600C124C41745D2FF596
:1046A00082741A800A124C41744D2FF582741A3E9E
:1046B000F583E0FFA3E0901A6FCFF0A3EFF0124B69
:1046C000D8E0FEA3E0FF901A6FE0FAA3E0FBC3EF8F
:1046D0009BEE9A4048124BD8E4F0A3F0047E00A869
:1046E00005088005C333CE33CED8F9FF901A6EE0AB
:1046F000FBEF5B600E7401A805088002C333D8FC91
:1047000049800D7401A805088002C333D8FCF45910
:10471000901A4CF08007124BD8E4F0A3F00DED6432
:1047200008600302465F800EE4FD124BD8E4F0A35C
:10473000F00DEDB408F4AF048F8422901A4CE0130E
:1047400013135401FF121903E4FD124C278005C313
:1047500033CE33CED8F9124C706017124C1D124B69
:1047600098E0FE54036403601C124B87E04401F0A0
:104770008013124C1D124B98E0FE54036007124B3D
:1047800087E04402F0124C268005C333CE33CED8E6
:10479000F9FFECFBEF5B601D124C1D124B98E0FE25
:1047A000540C640C6028124B95EE54F3124B94E0B9
:1047B0004404F08019124C1D124B98E0FE540C601A
:1047C0000D124B95EE54F3124B94E04408F0124C4A
:1047D000268005C333CE33CED8F9124C70601D123B
:1047E0004C1D124B98E0FE543064306028124B95FB
:1047F000EE54CF124B94E04410F08019124C1D126D
:104800004B98E0FE5430600D124B95EE54CF124B96
:1048100094E04420F0124C268005C333CE33CED82A
:10482000F9FFECFBEF5B601D124C1D124B98E0FE94
:1048300054C064C06028124B95EE543F124B94E074
:104840004440F08019124C1D124B98E0FE54C06099
:104850000D124B95EE543F124B94E04480F00DED59
:10486000C39408500302474A200F03125ABC22ADDA
:1048700007901C2FE0602014602F14700302490F72
:1048800014700302494414700302495B147003025C
:1048900049728000024942ED6424600302498B9012
:1048A0001C2DF0A3F0A304F022901C2DE06DF090DD
:1048B00018C1E014602A04704E901C2EE0906BCB5F
:1048C00093B5051A126ABF906BCB93600302498BB4
:1048D000901C2EF0A37402F0E49018C1F0228062C4
:1048E000901C2EE0906BD293B5051A126ABF906BA4
:1048F000D293600302498B901C2EF0A37402F090B7
:1049000018C114F022803B9018C17401F08077ED3B
:10491000B42A0AE4901C2EF0A37403F022901C2DFC
:10492000E06DF0A3E02475F582E43418F583EDF032
:10493000126ABFD39450500AED640A6005ED640D0D
:1049400070498042ED640A6004EDB40D0280379036
:104950001C2BEDF0901C2F7404F022ED640A60040F
:10496000EDB40D028020901C2CEDF0901C2F7405EE
:10497000F022ED640A6004EDB40D0B1263E1400611
:104980009018C07401F0E4901C2FF022C0E0C083A6
:10499000C082C0D075D000C000C003C005C006C032
:1049A00007AD8475840075FAFD75F9BE75F6087556
:1049B000D84075840F9015C0E01460401470030255
:1049C0004A4324FC4003024A5224066003024A730D
:1049D0009015BDE07003024A7812002E9015C2EFC8
:1049E000F09015C07401F0301504C2A18002C2A07D
:1049F0009015C4E4F09015CD04F0807C9015C4E0CF
:104A0000FF74017E00A807088005C333CE33CED8DB
:104A1000F9FF9015C2E0FBEF5B600B301504D2A1EB
:104A2000800DD2A08009301504C2A18002C2A090DE
:104A300015C4E004F0E0D39407403D9015C0740223
:104A4000F08035301504D2A18002D2A09015C0E0CC
:104A500004F0301504D2A18002D2A09015BDE090E0
:104A600015CD60057401F08002E4F09015C0E004FB
:104A7000F080059015C0E4F0AF058F84D007D00614
:104A8000D005D003D000D0D0D082D083D0E03290F7
:104A9000198EEFF0A3E584F075840F301E1120B558
:104AA0000E30B40B90198EE0FF125434024B80206C
:104AB000B503024B8020B403024B809010BBE0147E
:104AC0007003024B5B24FE606B24036003024B8087
:104AD000901C6BE014601A1460262402704F901929
:104AE0008EE064616003024B80901C6B04F0024B0B
:104AF0008090198EE0B44C06901C6B024B7D802D8B
:104B0000D21E7D3C7C007F0512639F90198EE0FFD2
:104B100060189010BB7401F09010C6EFF09010B3C5
:104B20007401F09010B4EFF08003125E48E4901C22
:104B30006BF0804C90198E1268E82441F582E434C1
:104B40000DF583EFF01268DFC39F4034D21B901045
:104B5000BB7402F09010E504F0802590198E126865
:104B6000E824C6F582E43410F583EFF01268DFD351
:104B70009F400D901BA5E04404F09010BB7402F020
:104B800090198FE0F5842274D82FF582E43415F55E
:104B900083EE54FCF074D82FF582E43415F58322AB
:104BA000901985E0FE25E02482F582E4341AF5832D
:104BB00074FFF5F01224EBEE25E02482F582E43454
:104BC0001AF58322901985E0131313541F24DAF584
:104BD00082E43415F583E022EDFF3395E0FEEF2506
:104BE000E0FFEE33FE74712FF582741A3EF58322D6
:104BF000E0FD75F002A42490FFE5F03410FEED25F1
:104C0000E0245DF582E4341AF583E0FCA3E0FD7B4B
:104C1000A02274922FF582E4341AF58322ED131347
:104C2000543FFF24D8220D74017E00A805082225D8
:104C3000E0244DF582E4341A22FFEDF4FEEF5EF03D
:104C400022EDFF3395E0FEEF25E0FFEE33FE227507
:104C5000F002A42480FFE5F03410FE2225E0245D5C
:104C6000F582E4341AF58322901A4BE084E5F022B1
:104C7000FF901A4CE0FCFBEF5B22202E64901C5945
:104C8000E0906BF193FF901478E0FEEF6E70489027
:104C90001C5BE0FF75F0911267BCEF2583F583E0A4
:104CA0007035901C5AE0FD75F091EF900334122797
:104CB00099EF2583F583E5822D1267B4EEF0901C01
:104CC0005AE004F0901C59E004F0E0906BF193601E
:104CD00003024D60D22E22E4901C5AF0901C59F031
:104CE00022901C5CE064337043901478E0FF6443CE
:104CF000703AC22E12679BEFF075F091ED9003357C
:104D00001267A9E4F0901C5AE02403FF75F091EDBE
:104D10001267BCED2583F583EFF0E4901C5AF0A3F5
:104D2000E004F0E0C394034037E4F022901478E00C
:104D3000FF640D6004EFB40A07C22EE4901C5AF021
:104D400012679BEFF0901C5AE004F0E0D39490E4DB
:104D500094014004E4F0C22E901478E0901C5CF0C2
:104D600022C207C208C209C20AF9E4F511F512FC11
:104D7000FDFEFFE91006EA20090CB42D04D209D388
:104D800022B42B02D32224D0504794095041240A44
:104D9000300A15F88512F0740AA42872E74051C54C
:104DA000F0704D85F012D322D208C0E0E4FBFA790E
:104DB000207841121E2AECF8EDF9EEFAEFFBD0E074
:104DC000FCE4122047121D393007B41511D32224F8
:104DD0000A200A20B4FE0720071AD207D32224EBA8
:104DE000600424E0700EA2099207D20AC209D322FD
:104DF000C30220E7E4300A0BE512300902F404A2F2
:104E00000792093008EA251120D2E5A2E7920A505C
:104E100002F404B4260050D8CCC0E0EDC0E0EEC0EF
:104E2000E0EFC0E0EC12227FD0E0FFD0E0FED0E067
:104E3000FDD0E0FC200A05121E2A8003121F333029
:104E4000090312223EC322901919EBF0A3EAF0A342
:104E5000E9F0901919E0FBA3E0FAA3E0F91223D7D7
:104E6000FF126AAB500C90191AE475F0011224EB92
:104E700080E0D200901919E0FBA3E0FAA3E0F91258
:104E800023D7FF642B6004EFB42D1D901919E0FBAC
:104E9000A3E475F00112284AA9F0FA1223D7642D71
:104EA0006003D38001C39200E490191CF0A3F0903A
:104EB0001919E0FBA3E0FAA3E0F91223D7FF126B64
:104EC000355042901919E0FBA3E0FAA3E0F9122350
:104ED000D7FF3395E0FEEF24D0FBEE34FFFA9019B4
:104EE0001CE0FEA3E0FF7C007D0A122484EF2BFF70
:104EF000EE3A90191CF0A3EFF090191AE475F00146
:104F00001224EB80AA30000A90191CE0FEA3E0FFF7
:104F1000800F90191CE0FEA3E0FFC3E49FFFE49E16
:104F2000FE222A204652454E4144412042525553CA
:104F30004341202A002A204143454C4552414349E0
:104F40004F4E20425255534341202A002A204750B9
:104F50005320434F4E45435441444F202A002A20BA
:104F60004D4F444F204553544143494F4E414D49C5
:104F7000454E544F20444553414354495641444FB4
:104F8000202A002A20414E542047505320454E20CD
:104F9000434F52544F202A002A20414E542047505C
:104FA000532044455343202A002A2047505320527F
:104FB00045534554202A0000174E2000444E45001A
:104FC000714520009E534500CB532000F8534F01FC
:104FD000254F2001524E4FFFFF4E2000000000B52C
:104FE00062061304000F0000002C09C0E0C0F0C0EE
:104FF00083C082C0D075D000C000C001C002C00311
:10500000C004C005C006C007901980E584F075840F
:1050100000126AC775840F30911A901480E0FF90D7
:105020001482E0FE7401A806088002C333D8FC4F46
:10503000901480F0901482E004F0E06408703490E2
:105040001480E0FF12486F301608901480E0FF12C1
:10505000657F901BB2E0C394024018901480E0FF7B
:105060001267C2901480E0FF1266F2901480E0FF95
:105070001268A9901482E0C394094014E4F09014DB
:1050800080F0F5849018C0E07002D2AAC2CAC28B28
:10509000901980E0F584D007D006D005D004D00365
:1050A000D002D001D000D0D0D082D083D0F0D0E0D8
:1050B00032901C351227DC901C38ECF0A3EDF0E4A4
:1050C000A3F0A3F0A3F0901C38E0FEA3E0FF901C37
:1050D0003BE0FCA3E0C39FEE6480F8EC6480984062
:1050E00003025167E4FD901C351227A5901C3BE09C
:1050F000FEA3E0F5828E831223F0FFA8050880024C
:10510000C313D8FCFF901C3AE0FE6FFFEEC313F010
:10511000EF30E039E0FE1313543F30E006EE54FB6D
:10512000F08007901C3AE04404F0901C3AE0FE1333
:105130001313541F30E006EE54F7F08007901C3A2A
:10514000E04408F0901C3AE04480F08007901C3A5C
:10515000E0547FF00DED6408708C901C3BE475F01A
:10516000011224EB0250C6901C3AE0FF222A2A2AA0
:105170002A2A20454E5649414E444F205041515510
:10518000455445202A2A2A2A2A002A205061712EB5
:1051900020456E766961646F207820656C20536FBE
:1051A000636B6574203D20256275002A2052656975
:1051B0006E74656E746F732064656C207061712EFF
:1051C000203D20256275002A2A2A2A2A2A2A2A2AEC
:1051D0002A2A2A2A2A2A2A2A2A2A2A2A2A2A2A2A2F
:1051E0002A2A2A2A0061742B6D697073656E643DEA
:1051F000782C0049443D2A2A2A2A2A2A2A2A0049A8
:10520000443D2A2A2A2A002A20454E5649414E4426
:105210004F204445534341524741205441434F4757
:105220005241464F202A00901985EFF0E4A3F090F8
:105230001986E0FFC3941040030252D91217CBE045
:10524000FEA3E04E70030252D0901986E024B4F51C
:1052500082E43417F583E0FE901985E06E7071A347
:10526000E0FE1217CC74FFF5F01224EBEE1217CC0F
:10527000E0FCA3E04C705975F002EF9017941227F0
:1052800099E0FCA3E0FD1217CBECF0A3EDF0901930
:1052900086E0FB75F00490172C12279912274E0018
:1052A000000000EB131313541F24E1F582E43415BE
:1052B000F583C083C082E0FF901986E05407FE7436
:1052C00001A806088002C333D8FC4FD082D083F0F7
:1052D000901986E004F002522F22E4FF123B4B1299
:1052E00069AD121A751218591215031219D5121830
:1052F000AE1218D630121C30131B9015E6E020E6D3
:105300000312473B300F051219268003125ABCC204
:10531000138002D213303314C233121B1A30140715
:10532000C214121AAC8002D214121AC5302914C247
:10533000291218C2121A8412189A1218BD12196270
:105340001218B8901BA4E0FFC31330E010EF54FD17
:10535000F01219801269C91219C11265B1901BA40B
:10536000E0FFC41313540330E007EF54BFF01218EA
:10537000D1202D030252DF7BA07DFF7FF57E01123D
:105380001A3EC22DD20012666C0252DF901929EF2C
:10539000F0A3ECF0A3EDF053E7FB901929E0FFFD3B
:1053A0003395E0FC743A2DF582741A3CF583EBF0EA
:1053B000C39464501CEF3395E0FEEF25E0FFEE331D
:1053C000FE1217E190192AE0FCA3E0FD1217C3803A
:1053D0002090192AE0FCA3E0FD901929E01217B7EC
:1053E0003EF583ECF0FCA3EDF0FD741A2FF582740A
:1053F0001A3EF583ECF0A3EDF043E704901929E0A1
:10540000FF1217FAFD3395E0FC74D62DF582741562
:105410003CF583C083C082E0FEEF1217FAAFF07450
:1054200001A807088002C333D8FCF45ED082D08381
:10543000F00265B1EF24B970030254CC24F9700373
:105440000254C324F860410460030254D17F7512F2
:105450006BA3E4901990F0901990E0FFC394105062
:1054600070301D0A74FE2FF582E4340C800B901905
:1054700090E02414F582E4340DF583E0FF126BA371
:10548000901990E004F080CF7F76126BA3E490191E
:1054900090F0901990E0FFC394045035301D0A74C9
:1054A0000F2FF582E4340D800B901990E02425F540
:1054B00082E4340DF583E0FF126BA3901990E004B1
:1054C000F080CF7F02126BA3E4FF80027F67126B34
:1054D000A32253E7FBE4901925F0901925E0FFC3C0
:1054E0009410507CEF25E0241A125564121786E4BC
:1054F000F0A3EFF0ED121786C083C082A3E0D08244
:10550000D083F0A3E4F0ED25E0241B1255641217BC
:1055100086E48FF01224EB1217AAE0FEA3E0FFED61
:10552000121786E0FCA3E0D39FEC9E402A90192539
:10553000E0121786EEF0A3EFF090192512177CE029
:10554000FD121A70901925E0121786A3E0FD90193C
:1055500026E004FF121A70901925E004F00254DAD4
:1055600043E70422FF121A6B901925E0FD22C0E0E8
:10557000C0F0C083C082C0D075D000C000C001C0E0
:1055800002C003C004C005C006C007901981E584AD
:10559000F0758400758CE4758AFE75840F30901A5E
:1055A00090147FE0FF901481E0FE7401A80608804B
:1055B00002C333D8FC4F90147FF0901481E004F0C4
:1055C000E0B4080890147FE0FF125691901481E037
:1055D000B4090EE4F090147FF0F584D2A8C28CC216
:1055E00089901981E0F584D007D006D005D004D089
:1055F00003D002D001D000D0D0D082D083D0F0D060
:10560000E032787FE4F6D8FD75812612180E025636
:105610004C0252DAE493A3F8E493A34003F680012A
:10562000F208DFF48029E493A3F85407240CC8C3DC
:1056300033C4540F4420C8834004F456800146F616
:10564000DFE4800B0102040810204080903D98E4C4
:105650007E019360BCA3FF543F30E509541FFEE474
:1056600093A360010ECF54C025E060A840B8E49336
:10567000A3FAE493A3F8E493A3C8C582C8CAC58378
:10568000CAF0A3C8C582C8CAC583CADFE9DEE780FD
:10569000BE901982EFF0D20C203277300C6EE0FF12
:1056A000F4606912657F901982E0FF9019F6E0249A
:1056B00092F582E43419F583EFF0EFB408107F20FF
:1056C00012657F7F081257134048E014F0229019AA
:1056D00082E0FF643C6005EF640D70217F0A126573
:1056E0007F7F0D1257134003D232227F3E12657F17
:1056F0009019F67401F0901992743EF0229019F608
:10570000E004F0E0C394644009E4F0229019F674D8
:1057100001F02212657F9019F6E0D3940122C0E0D7
:10572000C0F0C083C082C0D075D000C000C001C02E
:1057300002C003C004C005C006C00790198BE584F1
:10574000F0758400309820C298901478E599F01292
:105750004C7A301008901478E0FF12657F9014782E
:10576000E0FF1268848023309920C2999013A4E04E
:1057700060131267478F9930100312657F9014767B
:105780007401F08005901476E4F090198BE0F584B4
:10579000D007D006D005D004D003D002D001D0006D
:1057A000D0D0D082D083D0F0D0E032E4901925F070
:1057B000901925E0FFC394105073EF12179D7DA040
:1057C000121A48901926EEF0A3EFF0BEFF0EBFFFAD
:1057D0000B1217927BA0E4FDFC121A4D90192512B2
:1057E00017D87DA0121A43901928EFF0C394645083
:1057F00015901926E07002A3E0600B1217927BA0AF
:10580000E4FDFC121A4D901926E0FCA3E0FD4C903B
:105810001925600CE0FF901928E0FB12538C8005DD
:10582000E0FF126286901925E004F08083E4901571
:10583000D6F0A3F022AF84E4F584C2AF7589217558
:105840008E0A758CE4758AFFC28CD2A9D288D2A840
:10585000C28D758DF4758BF4D28ED2ABD28AD2AA5A
:10586000C28FF58475C908F5C875CDE475CCFF7590
:10587000CBB975CA49D2ADC2CA75840175C908F5DC
:10588000C875CBFE75CA4FD2CA75840275C908F5B2
:10589000C875CBAE75CAFF43E63843E745D2CA7533
:1058A000F702F58475D98175FAFD75F9BF75D84091
:1058B00075F60843E608D2ACD2AF8F8422E4901983
:1058C00090F0901990E0FFC394055072EF1268D1E8
:1058D000E060637F73126BA37F55126BA37F6E1220
:1058E0006BA37F47126BA37F61126BA31268CDE09D
:1058F000FF126BA3E4901991F0901991E0FFC3940B
:10590000125028901990E075F013A424EAF582E46F
:105910003410F583E5822FF582E43583F583E0FFCB
:10592000126BA3901991E004F080CEE4FF126BA3F8
:105930001268CDE4F022901990E004F08084222ACD
:1059400020494E494349414E444F202A002A2045D0
:10595000515549504F20414354495641444F202A04
:10596000002A20494943204552524F52202A002AFA
:105970002043415247414E444F2056414C4F5245DF
:105980005320582044454641554C54202A00226952
:105990006E7465726E65742E677072732E756E69A3
:1059A000666F6E2E636F6D2E6172222C227761708E
:1059B000222C227761702200313233343536373869
:1059C0000052504D3A202575003E52525025303538
:1059D000755F253035755F2530336275003E525254
:1059E0004325303262752530357525303575003EDA
:1059F00052555330302C253035752C253035752CCB
:105A0000253035752C253035752C253035752C25F0
:105A10003034752E253031752C002530376C6400FC
:105A20002530386C6400253032627525303262755D
:105A3000253032627525303262752530326275004C
:105A4000901924EFF053E7FBE4A3F0901925E0FF51
:105A5000C394105037EF121786E4F0A3F0EF12173B
:105A6000ABE4F0A3F0901924E06019A312179C7B1B
:105A7000A0E4FDFC121A4D9019251217D87BA0E462
:105A8000FD121A3E901925E004F080BFE49019251C
:105A9000F0901925E0FFC39402501474FF2FF58293
:105AA000E43415F583E4F0901925E004F080E24336
:105AB000E704901924E060031265B122E4FEEEC30E
:105AC00094085072EE1313543FFD24D8124B98E003
:105AD000FF5403FCBC0104EF4403FFEF5403FCBC80
:105AE0000204EF54FCFFEF540CFCBC0404EF440C24
:105AF000FFEF540CFCBC0804EF54F3FFEF5430FCF0
:105B0000BC1004EF4430FFEF5430FCBC2004EF54D1
:105B1000CFFFEF54C0FCBC4004EF44C0FFEF54C0C3
:105B2000FCBC8004EF543FFF74D82D124B98EFF06B
:105B300074042EFE8088222A2A204576656E746FB2
:105B40002054442530326275204163746976616463
:105B50006F20782044697374616E6369612A2A003A
:105B60003E524F442530386C645F2530386C6400F9
:105B70003E5254442530326275002530347525304C
:105B8000347500253033754D253033754D00253083
:105B90003375482530337548003030303030303080
:105BA0003000253033754B253033754B00E49019A8
:105BB00008F0901908E0FDC394105065E0FF13133E
:105BC00013541FFC1217F0E0FB7A00EF5407FF7428
:105BD000017E00A807088005C333CE33CED8F9FF75
:105BE000EE5AFEEF5B4E60311217AAE0FEA3E04EC4
:105BF0006027901908E0FF74D62C1217F2C083C0FA
:105C000082E0FEEF5407FF7401A807088002C33347
:105C1000D8FCF45ED082D083F0901908E004F080C4
:105C20009122E4FE121785E0FCA3E04C6060743A18
:105C30002EF582E4341AF583E075F06484E5F06FA4
:105C4000704C12178574FFF5F01224EB121785E0E3
:105C5000FCA3E04C7038EE1217ABE0FCA3E0FD4C67
:105C60006008121785ECF0A3EDF0EE131313541F28
:105C70001217F0C083C082E0FDEE5407FC7401A847
:105C800004088002C333D8FC4DD082D083F00EEEDE
:105C900064107090222A204C6C61766520496E67F2
:105CA00072657361646120202A002A204465736C48
:105CB0006F6775656F2043686F666572202A002ADA
:105CC000204C6F6775656F2043686F666572202A88
:105CD000003E524C442530326275253032627525C3
:105CE000303262752530326275253032627525306A
:105CF000326275002A204C6C61766520496E6772AD
:105D00006573616461202A00C0E0C0F0C083C08276
:105D1000C0D075D000C000C001C002C003C004C024
:105D200005C006C007901983E584F075840153C847
:105D30007F901BABE0600214F09019F8E07002A3B2
:105D4000E0600A9019F874FFF5F01224EB121AA71C
:105D5000121AE8901983E0F584D007D006D005D058
:105D600004D003D002D001D000D0D0D082D083D0D4
:105D7000F0D0E03290191CEFF090191FEBF0901961
:105D80001DECF0A3EDF04C90191C6010E0FFA3E0B7
:105D9000FCA3E0FDA3E0FB12538C8005E0FF126240
:105DA0008690191C12179C7DA0121A4890191DE0AC
:105DB000FCA3E0FD6F7002EC6E600B90191C1217D3
:105DC0009C7BA0121A4D1217D57DA0121A43901970
:105DD0001FE0FD6F60081217D57BA0121A3E22D279
:105DE0000DAF84901BB1E030E602C20D901C6CE058
:105DF000FE64026003EE7002B20D75840F9015DA36
:105E0000E0FE30E006A20D92B08005A20DB392B084
:105E100030A305A20DB392B1EE30E107A20DB3920B
:105E2000B18004A20D92B1EE30E207A20DB392B29E
:105E30008004A20D92B2EE30E307A20DB392B380BC
:105E400004A20D92B38F8422126AD150030258BD6E
:105E50001218E0EFF46055301E529010BCEFF0C203
:105E60001E9010E57403F09010BBF0E49010B3F0B6
:105E7000901BA5E04420F09010B47440F09010B74F
:105E800012274E000000009010BCE075F00DA42415
:105E90008AF582E43410F583E09010B5B4340574CB
:105EA00006F080037401F0C20E12669922126A6F26
:105EB000126B52D21ED21DC226125835E490190719
:105EC000F01269AD901907E004F0E0C3946440F16A
:105ED00075840F126B17126B78126A831269FC12A9
:105EE00069AD12616E30100B7BFF7A59794DE4FD7C
:105EF0001219DA12185E1218E51261831269AD7D6B
:105F00001E7C007F0712639F7D787C007F02026306
:105F10009FEBFF3395E0FEEF25E0FFEE33FE744B81
:105F20002FF582741B3EF58322EF25E0244BF5828A
:105F3000E4341BF583227C0012639F901B6C22F4D7
:105F4000FFEEF4FE901B6BE05EF0A3E05FF02274C6
:105F5000FFF5F00224EBFF901B6BE04EF0A3E04F47
:105F6000F022047E00A8070822901900E0FCA3E0BC
:105F7000FD4C22C0E0C0F0C083C082C0D075D0000C
:105F8000C000C004C005C007AD8475840075E8007A
:105F9000AFBF901A9AE0FC75F002126B93E4F0A385
:105FA000EFF0126B8FC083C082A3E0D082D083F069
:105FB000A3E4F0AFBE126B8FE48FF01224EBAF05B9
:105FC0008F84D007D005D004D000D0D0D082D08329
:105FD000D0F0D0E032D200AF84901BB1E030E602C6
:105FE000C200901C6CE0FE64026003EE7002B2001E
:105FF00075840F9015DAE0FE30E006A20092B080C2
:1060000005A200B392B0EE30E107A200B392B180D6
:1060100004A20092B1EE30E207A200B392B2800473
:10602000A20092B2EE30E307A200B392B38004A2C2
:106030000092B38F842247554152444F2050415122
:10604000204C4F473A202575004C4F47204C4C457B
:106050004E4F00424F52524F2050415155455445EA
:10606000204C4F473A202575004C454F2050415158
:1060700055455445204C4F473A202575004445531B
:10608000434152544F2050415155455445204C4FA7
:10609000473A20257500C0E0C0F0C083C082C0D060
:1060A00075D000C000C001C002C003C004C005C05C
:1060B00006C00790198CE584F0758401309816C2EB
:1060C00098A3E599F0E0FF124A8F300E0890198DE1
:1060D000E0FF12693090198CE0F584D007D006D02B
:1060E00005D004D003D002D001D000D0D0D082D0CF
:1060F00083D0F0D0E0324142434445464748494AC4
:106100004B4C4D4E4F505152535455565758595A67
:1061100000454E5649414E444F004D454E53414A6D
:1061200045002A20456E7669616E646F204D656E6C
:1061300073616A65202A004D454D20424F525241FD
:106140004441004552524F52204445534341524727
:10615000410075F002ED122799E0FEA3E0D394060A
:10616000EE942722901900E0FCA3E0FD4C22901849
:10617000EB7461F09018EC7403F022F0A3F0A3F03C
:10618000A3F02275840F901BA3E054FEF0227BFF46
:106190007A5979B822901922E004F022122799E462
:1061A000F0A374C8F022E475F0011224EBFAC3E501
:1061B000F094A4EA941322EEF0A3EFF0A3EEF0A380
:1061C000EFF022AE8475840F75A4417584018F9918
:1061D00022C29975840F75A401AF068F8422901294
:1061E000D87411F0A37448F022E0FCA3E0F5828C8F
:1061F00083EFF0222A44455343415247414E444FD6
:106200002A002A46494E2044455343415247412AD9
:10621000003E5246554425303475003E4552524F9B
:10622000522530336275003E524655444525303480
:10623000755F25630007FD0FFB17F81FF590191A0E
:10624000EFF0C39408503EAE04AF057C007D0A1207
:106250002484E0F9124C2FF583EEF0A3EFF0AE02A8
:10626000AF03122484E9124C5CEEF0A3EFF0E912C4
:106270004C4FE9124C2F124C08121A4D90191A1259
:106280004BF0121A4D22AD0753E7FBED1217B71270
:1062900017E81217E1ED1217FAFF3395E0FE74D6F6
:1062A0002FF58274153EF583C083C082E0FFAE05F2
:1062B000EE1217FAAEF07401A806088002C333D8B4
:1062C000FCF45FD082D083F043E7040265B1E49030
:1062D0001C71F0901C71E0FFC394085038EF124C11
:1062E0002FF583E4F0A37428F0EF124C5CE4F0A3E4
:1062F0007428F0EF124C4F901C71E0124C2F124C8E
:1063000008121A4D901C71124BF0121A4D901C710C
:10631000E004F080BE22AE849013A4E0C394C84091
:1063200008901476E0640160F8E4F584C2AC901340
:10633000A51261E99013A4E004F0A31261A6400A3B
:106340009013A57412F0A374DCF0901476E0700240
:10635000D299D2ACAF068F847F0022C2D5E830E755
:106360000FB2D5E4C39BFBE49AFAE499F9E498F8F8
:10637000EC30E717B2D51263911225B8E4C39BFB4A
:10638000E49AFAE499F9E498F880031225B830D534
:106390000DE4C39FFFE49EFEE49DFDE49CFC22AB64
:1063A0000753E7FBED4C601D125F11ECF0A3EDF01D
:1063B00074017E00A803088005C333CE33CED8F91C
:1063C000125F3F8018125F11E4F0A3F0AF03125F79
:1063D000628005C333CE33CED8F9125F5643E7044B
:1063E00022901C2DE0FFC4540FFEC3940A40067493
:1063F000372EFE800474302EFE901C2BE0B506155F
:10640000EF540FFEC3940A400674372EFE800874C2
:10641000302EFE8002D322901C2CE0B50602C3224F
:10642000D3222A204D4F444F204553544143494FD6
:106430004E414D49454E544F2041435449564144E5
:106440004F202A002A2041434345534F2044454EC4
:10645000454741444F202A0046494E204445425575
:106460004700AF8475840F758904E4F58475B720FF
:1064700075840F75890520000B758D01758F317539
:106480008E068009758D1F758F37758E01E4FE0E9F
:10649000EEB405FBE58960FC4389027597328F8471
:1064A00022901985E584F075840F126518901BB849
:1064B000E06010901A81E0600614F0C2968006D267
:1064C000968002C296901BA3E0FF1313543F1392D1
:1064D00094EFC313139295901985E0F584224D6FC4
:1064E00076696D69656E746F2042727573636F00B3
:1064F0004D6F76696D69656E746F20446574656370
:106500007461646F0053696E204D6F76696D6965C3
:106510006E746F0000010602901BA2E014F0E070A0
:106520002A9015E8E0901BA230E6057420F0800365
:106530007405F0901BA3E0FF1313543F30E005EF08
:1065400054FBF022901BA3E04404F022C0E0C0837F
:10655000C082C0D075D000C0079018C0E07015AFE1
:1065600084F584C2AAD2CA126AC7901480F090142B
:1065700082F08F84D007D0D0D082D083D0E0325345
:10658000E6F79015BDE0C394C8400280209015BE88
:10659000126B84EFF09015BDE004F0A3E004F0E08E
:1065A000C394C84002E4F09014797401F043E60803
:1065B00022E490192CF090192C12177CE0FD121A8D
:1065C0007090192CE0121786A3E0FD90192DE004BD
:1065D000FF121A7090192CE004F0E0C3941040D61A
:1065E000222A2A204556454E544F202562752041C7
:1065F0004354495641444F202A2A002A20446573B7
:106600006C6F6775656F2043686F666572202A003E
:10661000AF8475840F758C67E4FDFC0DBD00010C23
:10662000E4B505F7ECB401F3E58C30E7FBE4F58461
:1066300075EF0675840F759701F58A8F8422C0E087
:10664000C083C082C0D075D000C007AF84758400FD
:10665000C2A8D28C758CE4758AB0901481E4F08F56
:1066600084D007D0D0D082D083D0E032901924E5F6
:1066700084F012186D200006121A3912197B7F1946
:10668000121A6BEF4401FD7F19121A70E4F584436E
:10669000EF01901924E0F584227F74126BA37F58D8
:1066A000126BA37F05126BA37F03126BA37FFF12F4
:1066B0006BA37FFF126BA37FAA126BA37FAA126B3F
:1066C000A37F29026BA3AD07ED125F13E0FAA3E0ED
:1066D0004A601E53E7FB125F1EE4F0A3F0AF051201
:1066E0005F628005C333CE33CED8F9125F3F43E7F4
:1066F0000422901C30E0906BD993B5071A901C309F
:10670000E004F0E0D3940440139015E7E04410F067
:10671000901C337401F022E4901C30F022125F29A7
:10672000E0FCA3E04C601F125F29125F4F125F294B
:10673000E0FCA3E04C700F125F628005C333CE33E0
:10674000CED8F9125F5622C2AC9013A7E0FEA3E0A8
:10675000F5828E83E0FF9013A4E014F09013A7124B
:1067600061A6400A9013A77412F0A374DCF0D2ACB7
:106770002253E7BF901475E024ABF582E43413F59F
:1067800083E0FF901473E014F0901475E004F0E0DF
:10679000C394C84002E4F043E74022901C5AE0FE54
:1067A000A3E0FD75F091900334122799ED2583F550
:1067B00083E5822EF582E43583F583229004C402BA
:1067C0002799901C32E0906BE493B50716901C3229
:1067D000E004F0E0D39401400FE4901C34F0901CEE
:1067E00033F022E4901C32F022C2AC1261DEE4FFEE
:1067F000FE9012D8E0FCA3E02FF582EC3EF5837406
:10680000FFF00FBF00010EBE01E7BF90E4D2AC2243
:10681000AA07A905EAD39408501CAF037E007C00A8
:106820007D64122484EA124BB8EEF0A3EFF0749268
:106830002A124C15E9F022EFB40A07740D126842CF
:10684000740A309811A899B8130CC2983098FDA812
:1068500099C298B811F63099FDC299F59922AF8482
:1068600075840F75E10675E21475E34475A401752E
:10687000A50875A6A3E4F5A7759C94F59DF59EF56E
:106880009F8F8422C2AC9012D81261E99012D8E492
:1068900075F0011224EBFCC3E5F094D8EC9412409F
:1068A000031261DED2AC7F0022901C31E0906BDFDE
:1068B00093B50713901C31E004F0E0D39403400C2F
:1068C000901C347401F022E4901C31F02290199055
:1068D000E075F013A424E9F582E43410F5832290E6
:1068E00010B3E004F09010B4E0FF9010B3E0222A5F
:1068F000204552524F5220454E56494F3A204C4F58
:106900004720444553484142494C495441444F0073
:10691000AD84E4901C6CF075840F30FC04E04401FD
:10692000F030FD07901C6CE04402F0AF058F84222C
:10693000901C73E0906BE793B5070F901C73E00415
:10694000F0E0C394094008D22D22E4901C73F02299
:106950002A204D4F444F20444F524D4952202A0087
:106960005A7A7A2E2E002A205245534554202A0066
:10697000AF8475840F302812901BADE0FEB4320254
:10698000C2A5EEB46306D2A58002C2A58F842220E0
:106990004576656E746F204750533A2043414D420F
:1069A000494F20444952454343494F4E00AF8475F7
:1069B000840F901A4AE06006E4F0C2C88008901A7A
:1069C0004A7401F0D2C88F84227B007A007913D2F6
:1069D00000121886EF700BFB7A007913121A071257
:1069E000384D223E52555330312C253035752C0010
:1069F0002530376C64002530386C6400E49015CD88
:106A0000F07FC89014F5E4F0A3DFFCE49015BDF02E
:106A1000A3F0A3F02253E7FB7F20901B4BE4F0A3ED
:106A2000DFFCE4901B6BF0A3F043E70422AF84E4A7
:106A3000F58475985075910A75840175981043F71F
:106A4000408F8422E4FFEF124BB8E4F0A3F0124C25
:106A50001274FFF00FEFB408ED22E4FFFE1223D70B
:106A6000600C0FEF70010E09E970F20A80EF2275D9
:106A7000FFDE75FFAD126610C20012646212685E1E
:106A8000026A2DE49014E9F0FBFAF99014EB122756
:106A9000DCE49014F1F02210350B126BADBF0D0247
:106AA0007F0A026837901C75E0FF22EFC39409400B
:106AB00005EF940E4004EFB42003D38001C322906D
:106AC0001C2EE004F0E02253C87F75CDE475CCFFA6
:106AD00022E4FFEF1268D1E06002D3220FEFB40589
:106AE000F2C322E4FF126B6C6005126B6C14F00FA2
:106AF000EFB41BF122C2ACE49013A4F07E127FDC51
:106B0000A31261B7D2AC2253E7BFE4901473F0A391
:106B1000F0A3F043E74022126B26126AF51267E9F0
:106B2000E4901476F022C2AC7E117F489012D81205
:106B300061B7D2AC22EFC394304007EF943A5002D1
:106B40008001C32253E7BFE49013A9F0A3F043E709
:106B50004022AF8475840FC296C295C2948F84225E
:106B6000EF240A83901800730E23384D75F02AEF36
:106B7000900838122799E022126B44126B07E490B8
:106B80001477F022E024F5F582E43414F5832275BD
:106B9000F002EC901A9B0227991261C33099FD1202
:106BA00061D1221261C33099FD1261D1223098FD6A
:106BB000AF99C2987E0022901C75EFF0D235221258
:106BC0006A830269FC901A81EFF0224750524D43CC
:106BD0002C0047504747412C0053484F5254004F18
